:020000040800F2
:100000005C0C002055020008451600085116000837
:100010005916000861160008691600080000000063
:100020000000000000000000000000007116000841
:100030007D160008000000008916000895160008CB
:10004000B1020008B1020008B1020008B1020008C4
:10005000B1020008B1020008212800084D2900085B
:10006000E9290008F9290008092A0008B102000856
:10007000B1020008B1020008B1020008B102000894
:10008000B1020008B1020008B1020008B102000884
:10009000B1020008B1020008B1020008B102000874
:1000A000B1020008B1020008B1020008B102000864
:1000B000D94800089528000839280008B10200082E
:1000C000B1020008B1020008B1020008B102000844
:1000D000B102000829270008B10200088D27000896
:1000E000B1020008B1020008B1020008B102000824
:1000F000B1020008B1020008F1280008B1020008AE
:10010000B1020008B1020008B1020008B102000803
:10011000B1020008B1020008B1020008B1020008F3
:10012000B1020008B1020008B1020008B1020008E3
:10013000B1020008B1020008B1020008B1020008D3
:10014000B1020008B1020008B1020008B1020008C3
:10015000B1020008B1020008B1020008B1020008B3
:10016000B1020008B1020008B1020008B1020008A3
:10017000B1020008B1020008B1020008B102000893
:10018000B1020008B102000880B485B000AF034698
:100190003960FB800D4B1B685B8AFB60FB88002B82
:1001A0000AD10A4B1B683A689188FA6892B28A1A97
:1001B00092B21A82002303E03B681A68FB6813447A
:1001C00018461437BD4680BC704700BF4C02002063
:1001D00080B485B000AF0346FB71194B1B78BB6040
:1001E0000023FB601DE0FB68DBB29B0003F1804352
:1001F00003F5B843FA68D2B2920002F1804202F5E8
:10020000B8421268114640F60F720A4042F40042AA
:1002100042F08002F968C9B20A431A60FB680133F0
:10022000FB60FA68BB689A42DDD3064AFB7963F04B
:100230007F03DBB2136000BF1437BD4680BC70473C
:100240004C0000204C5C004080B400AF00BFBD46B5
:1002500080BC704780B582B000AF104B7B60104B04
:100260003B6007E03B681A1D3A607A68111D7960AF
:1002700012681A603B680B4A9342F3D30A480B4951
:100280004FF000028842B8BF40F8042BFADB01F0BF
:10029000C3FB00BF0837BD4680BD00BF44640008F3
:1002A0000000002058010020580100205C040020BC
:1002B00080B400AFFEE700BF80B48BB000AF7860C1
:1002C00000233B620023FB610023BB6100237B61B1
:1002D00000233B6100237B620023FB600023BB60A3
:1002E000924B5B6803F00C033B623B6A042B07D024
:1002F000082B09D0002B30D17B688D4A1A6030E082
:100300007B688B4A1A602CE0884B5B6803F470139F
:10031000FB61864B5B6803F48033BB61FB699B0C1C
:100320000233FB61BB69002B05D1FB69814A02FBEB
:1003300003F37B620DE07D4BDB6A03F00F030133B7
:100340007B617B4A7B69B2FBF3F3FA6902FB03F33F
:100350007B627B687A6A1A6003E07B68744A1A6081
:1003600000BF724B5B6803F0F0033B623B6A1B0902
:100370003B62714A3B6A13441B78DBB2BB607B680B
:100380001A68BB68DA407B685A60684B5B6803F4A4
:10039000E0633B623B6A1B0A3B62674A3B6A134469
:1003A0001B78DBB23B617B685A683B69DA407B684B
:1003B0009A605E4B5B6803F460533B623B6ADB0A06
:1003C0003B625D4A3B6A13441B78DBB2FB607B688F
:1003D0005A68FB68DA407B68DA60544BDB6A03F4E6
:1003E000F8733B623B6A1B093B62544A3B6A32F832
:1003F00013309BB23B613B6903F01003002B06D026
:100400007A6A3B69B2FBF3F27B681A6103E07B68AE
:100410001A687B681A61454BDB6A03F478533B62C8
:100420003B6A5B0A3B62454A3B6A32F813309BB237
:100430003B613B6903F01003002B06D07A6A3B69ED
:10044000B2FBF3F27B685A6103E07B681A687B6851
:100450005A61364B1B6B03F01003002B03D17B68F2
:10046000334A9A6103E07B681A687B689A612F4B74
:100470001B6B03F02003002B03D17B682C4ADA614D
:1004800003E07B681A687B68DA61284B1B6B03F416
:100490008073002B0DD07B681A687B6A9A4208D162
:1004A000FA68BB689A4204D17B6A5A007B681A6278
:1004B00003E07B68DA687B681A621C4B1B6B03F4F1
:1004C0000073002B0DD07B681A687B6A9A4208D1B2
:1004D000FA68BB689A4204D17B6A5A007B685A6208
:1004E00003E07B68DA687B685A62104B1B6B03F091
:1004F0000303002B04D17B68DA687B689A6228E0EA
:100500000A4B1B6B03F00303012B04D17B681A68B1
:100510007B689A621DE0054B1B6B03F00303022B03
:100520000ED17B684FF400429A6212E00010024044
:1005300000127A0000093D00000000201000002099
:10054000604B1B6B03F00303032B02D17B685E4AF5
:100550009A625C4B1B6B03F44033002B04D17B6825
:100560009A687B68DA6221E0564B1B6B03F44033D8
:10057000B3F5803F04D17B681A687B68DA6215E0C6
:10058000504B1B6B03F44033B3F5003F04D17B6841
:100590004FF40042DA6209E04A4B1B6B03F440332C
:1005A000B3F5403F02D17B68474ADA62454B1B6B8B
:1005B00003F44023002B04D17B689A687B681A639C
:1005C00021E0404B1B6B03F44023B3F5802F04D193
:1005D0007B681A687B681A6315E03A4B1B6B03F45F
:1005E0004023B3F5002F04D17B684FF400421A6317
:1005F00009E0344B1B6B03F44023B3F5402F02D1C9
:100600007B68314A1A632F4B1B6B03F44013002B9A
:1006100004D17B689A687B685A6321E0294B1B6B85
:1006200003F44013B3F5801F04D17B681A687B681C
:100630005A6315E0234B1B6B03F44013B3F5001F03
:1006400004D17B684FF400425A6309E01D4B1B6BD9
:1006500003F44013B3F5401F02D17B681A4A5A6372
:10066000184B1B6B03F44003002B04D17B689A6882
:100670007B689A6321E0134B1B6B03F44003B3F5D3
:10068000800F04D17B681A687B689A6315E00D4B74
:100690001B6B03F44003B3F5000F04D17B684FF4E8
:1006A00000429A6309E0074B1B6B03F44003B3F568
:1006B000400F02D17B68044A9A6300BF2C37BD46C5
:1006C00080BC70470010024000127A0080B483B0F2
:1006D00000AF7860034A7B68136000BF0C37BD46EB
:1006E00080BC7047D800424280B483B000AF7860CD
:1006F0000B46FB70FB78002B06D00949084B5A6962
:100700007B6813434B6106E00549054B5A697B68DA
:10071000DB4313404B6100BF0C37BD4680BC7047C4
:100720000010024080B483B000AF78600B46FB70CD
:10073000FB78002B06D00949084B9A697B68134364
:100740008B6106E00549054B9A697B68DB431340E2
:100750008B6100BF0C37BD4680BC70470010024063
:1007600080B483B000AF78600B46FB70FB78002B41
:1007700006D00949084BDA697B681343CB6106E070
:100780000549054BDA697B68DB431340CB6100BF49
:100790000C37BD4680BC70470010024080B483B067
:1007A00000AF78600B46FB70FB78002B06D0094940
:1007B000084BDA687B681343CB6006E00549054BBC
:1007C000DA687B68DB431340CB6000BF0C37BD4663
:1007D00080BC70470010024080B483B000AF7860E6
:1007E0000B46FB70FB78002B06D00949084B1A69B1
:1007F0007B6813430B6106E00549054B1A697B686A
:10080000DB4313400B6100BF0C37BD4680BC704713
:100810000010024080B584B000AF78600023FB7305
:100820000023BB7300F00EFA7B681A787B685B7854
:100830001343DAB27B689B781343DAB2FB7B134332
:10084000DBB2FB737B681A797B685B791343DAB29E
:100850007B689B791343DAB27B68DB781343DAB2A7
:10086000BB7B1343DBB2BB7307F10F031A46202196
:10087000322000F075F807F10E031A4623213220CA
:1008800000F06EF800BF1037BD4680BD80B584B063
:1008900000AF786007F10F0201232121322000F020
:1008A0000DF9FB7B03F00C03DBB2FB737B681A785A
:1008B0007B685B781343DAB27B689B781343DAB2C8
:1008C0007B68DB781343DAB2FB7B1343DBB2FB7349
:1008D00007F10F031A462121322000F041F800BF32
:1008E0001037BD4680BD00BF80B584B000AF7860D2
:1008F0000023FB730023BB7300237B7300F0A2F97A
:100900007B681A787B685B781343DAB2FB7B13430E
:10091000DBB2FB737B68DA78BB7B1343DBB2BB7360
:100920007B689A787B7B1343DBB27B7307F10F0301
:100930001A4600213C2000F013F807F10E031A4676
:1009400001213C2000F00CF807F10D031A460221AA
:100950003C2000F005F800BF1037BD4680BD00BF49
:1009600080B584B002AF03463A60FB710B46BB71A1
:10097000504B4FF420421A600BE04E4B1B685A1E3E
:100980004C490A60002B04D101F0D2FD03469BB212
:100990008CE04FF40041484802F05CFB0346002B1A
:1009A000EBD1FB7999B24FF4005300934FF0807371
:1009B0000122414802F008FB3E4B4FF420421A60EE
:1009C0000BE03C4B1B685A1E3A490A60002B04D1CD
:1009D00001F0AEFD03469BB268E00221364802F00A
:1009E00039FB0346002BECD0BB791946324802F0A4
:1009F00017FB304B4FF420421A600BE02D4B1B6865
:100A00005A1E2C490A60002B04D101F091FD0346C7
:100A10009BB24BE08021284802F01CFB0346002BD0
:100A2000ECD0FB7999B2002300934FF000730122C0
:100A3000214802F0C9FA1F4B4FF420421A600BE024
:100A40001C4B1B685A1E1B490A60002B04D101F085
:100A50006FFD03469BB229E00221174802F0FAFA23
:100A60000346002BECD03B681B781946124802F075
:100A7000D7FA104B4FF420421A600BE00D4B1B6865
:100A80005A1E0C490A60002B04D101F051FD0346A7
:100A90009BB20BE02021084802F0DCFA0346002B51
:100AA000ECD02021044802F0F3FA0023184608375E
:100AB000BD4680BD2C0000200054004080B584B0AD
:100AC00002AF3A601A460346FB710B46BB711346F0
:100AD000BB805A4B4FF420421A600BE0574B1B6807
:100AE0005A1E56490A60002B04D101F021FD03462D
:100AF0009BB29FE04FF40041514802F0ABFA03462D
:100B0000002BEBD1FB7999B24FF4005300930023F3
:100B100001224B4802F058FA484B4FF420421A6029
:100B20000BE0464B1B685A1E44490A60002B04D157
:100B300001F0FEFC03469BB27CE00221404802F03B
:100B400089FA0346002BECD0BB88012B03D9BB7973
:100B500063F07F03BB71BB791946394802F060FA34
:100B6000364B4FF420421A600BE0344B1B685A1E80
:100B700032490A60002B04D101F0DAFC03469BB233
:100B800058E040212E4802F065FA0346002BECD0D5
:100B9000FB7999B2BB88DAB24FF4105300934FF04F
:100BA0000073274802F010FA24E0244B4FF420424F
:100BB0001A600BE0214B1B685A1E20490A60002B6B
:100BC00004D101F0B5FC03469BB233E004211C487C
:100BD00002F040FA0346002BECD0194802F02EFA3E
:100BE00003461A463B681A703B6801333B60BB887A
:100BF000013BBB80BB88002BD7D1104B4FF4204268
:100C00001A600BE00D4B1B685A1E0C490A60002B42
:100C100004D101F08DFC03469BB20BE02021084873
:100C200002F018FA0346002BECD02021044802F011
:100C30002FFA002318460837BD4680BD2C0000203F
:100C40000054004080B58CB000AF01214FF400107B
:100C5000FFF786FD01214FF48020FFF745FD0121BC
:100C60004FF40010FFF740FD01214FF40010FFF793
:100C70003BFD01214FF40010FFF736FD0422062151
:100C8000414800F0EBFD042207213F4800F0E6FD5B
:100C9000022387F82C30002387F82E30022387F8B0
:100CA0002F30032387F82D304023BB6207F1280340
:100CB0001946354800F004FD8023BB6207F1280384
:100CC0001946314800F0FCFC002387F82C30002343
:100CD00087F82E30002387F82F30032387F82D3034
:100CE0000423BB6207F128031946284800F0E8FCFA
:100CF0000221042003F0AEF902233B62002387F8AF
:100D00002430082387F82530012387F8263007F19F
:100D10002003184601F080FE00233B610023BB60E6
:100D20000023FB6000237B610023BB610023FB6188
:100D3000174B7B603B1D1946164802F0C5F8012190
:100D4000144802F025F91023BB62002387F82C30E9
:100D5000002387F82E30032387F82D30002387F8EF
:100D60002F3007F128031946084800F0A9FC20237A
:100D7000BB6207F128031946044800F0A1FC00BF3C
:100D80003037BD4680BD00BF000400480010004859
:100D9000252090000054004080B483B000AF03468B
:100DA000FB800549FA884FF6F87313400B6000BFCB
:100DB0000C37BD4680BC7047505C004080B483B0A7
:100DC00000AF03460A46FB711346BB80FB799B00CC
:100DD00003F1804303F5B843FA79920002F18042AF
:100DE00002F5B842126812B222F4EC4222F070020C
:100DF00011B2B7F904200A4312B292B21A6000BFCE
:100E00000C37BD4680BC704790B482B000AF03463B
:100E10000A46FB711346BB80FB799B0003F18043BC
:100E200003F5B8431B689BB223F4E04323F040036F
:100E30009CB2BB8803F010039BB2002B02D084F05D
:100E400010039CB2BB8803F020039BB2002B02D09E
:100E500084F020039CB2FB799B0003F1804303F5EF
:100E6000B843044A224392B21A6000BF0837BD4615
:100E700090BC70478080FFFF90B482B000AF034603
:100E80000A46FB711346BB80FB799B0003F180434C
:100E900003F5B8431B689BB223F4804323F070032F
:100EA0009CB2BB8803F480539BB2002B02D084F425
:100EB00080539CB2BB8803F400539BB2002B02D03A
:100EC00084F400539CB2FB799B0003F1804303F54B
:100ED000B843044A224392B21A6000BF0837BD46A5
:100EE00090BC70478080FFFF90B482B000AF034693
:100EF000FB71FB799B0003F1804303F5B8431B684A
:100F00009BB223F4804323F070039CB284F480539B
:100F10009CB284F400539CB2FB799B0003F18043A4
:100F200003F5B843044A224392B21A6000BF08375F
:100F3000BD4690BC704700BF8080FFFF80B483B087
:100F400000AF0346FB71FB799B0003F1804303F57F
:100F5000B843FA79920002F1804202F5B842126871
:100F600011B240F60F620A4011B2054A0A4312B2AA
:100F700092B21A6000BF0C37BD4680BC704700BFFC
:100F80008080FFFF80B483B000AF03460A46FB7148
:100F90001346BB800A4B1B689AB2FB79DB001344F3
:100FA00003F1005303F540535B001A46BB885B080E
:100FB0009BB25B00136000BF0C37BD4680BC70471E
:100FC000505C004080B483B000AF03460A46FB711A
:100FD0001346BB80094B1B689AB2FB79DB001A44AD
:100FE000074B13445B001A46BB885B089BB25B004F
:100FF000136000BF0C37BD4680BC7047505C00409A
:101000000430002080B483B000AF03460A46FB7171
:101010001346BB80084B1B689AB2FB79DB001A446D
:10102000064B13445B001A46BB88136000BF0C37A5
:10103000BD4680BC704700BF505C004002300020BD
:1010400080B485B000AF03460A46FB711346BB80EF
:101050001A4B1B689AB2FB79DB001A44184B1344F5
:101060005B00BB60BB883E2B12D9BB885B09FB8150
:10107000BB8803F01F03002B02D1FB89013BFB81DE
:10108000FB899B0243F400431A46BB681A600FE0D9
:10109000BB885B08FB81BB8803F00103002B02D0F7
:1010A000FB890133FB81FB899B021A46BB681A60EE
:1010B00000BF1437BD4680BC704700BF505C004085
:1010C0000630002080B582B000AF01214FF0805083
:1010D000FFF746FB01210120FFF724FB01214FF41C
:1010E0000010FFF701FB01214FF40030FFF7FCFA7D
:1010F0004FF4C0533B6003237B7102233B710023F9
:10110000BB710023FB713B4619464FF0904000F045
:10111000D7FA0E220B214FF0904000F09FFB0E22D9
:101120000C214FF0904000F099FB0121002003F0CA
:1011300089FE122001F06AFD0A4B12221A60094B47
:1011400000221A71074B08225A71064B01229A712C
:10115000044801F061FC002001F058FD00BF083791
:10116000BD4680BD1402002080B500AF0020FFF70F
:10117000ADFA01214FF40000FFF7F2FA00BF80BD85
:1011800080B582B000AF4FF4A06001F0A7FF142338
:101190003B7102237B710023BB710123FB713B1D5B
:1011A000184601F0ADFF2A233B7101237B71012317
:1011B000FB713B1D184601F0A3FF06233B71002382
:1011C0007B713B1D184601F09BFF00BF0837BD46F1
:1011D00080BD00BF80B582B000AF0346FB71FB79D4
:1011E000002B05D04FF48041064800F029FB04E0B5
:1011F0004FF48041034800F015FB00BF0837BD469F
:1012000080BD00BF0010004880B584B000AF0F4B18
:101210001B68FB600E4B1B68BB600E4B1B687B6042
:10122000FA687B681344FB60FB68002B09D0082236
:101230000949F86800F014F804220849B86800F079
:101240000FF800BF1037BD4680BD00BFE8F7FF1F95
:10125000ECF7FF1FF0F7FF1F3200002042000020D4
:1012600080B487B000AFF860B9601346FB7100230B
:10127000FB750023FB7527E0FB681B0F092B0BD8C0
:10128000FB7D5B001A46BB681344FA68120FD2B2AA
:101290003032D2B21A700AE0FB7D5B001A46BB689E
:1012A0001344FA68120FD2B23732D2B21A70FB6806
:1012B0001B01FB60FB7D5B000133BA681344002215
:1012C0001A70FB7D0133FB75FA7DFB799A42D3D30B
:1012D00000BF1C37BD4680BC704700BF80B500AF63
:1012E000FFF792FF064B1B6800229A7200F0FEFA8D
:1012F00001F0DCFE034B00221A6000BF80BD00BF7E
:101300004C0200205801002080B500AF264B1B681E
:1013100000229A72244B1B680022DA72224B1B684F
:10132000224AD2795A720020FFF736FD4FF400713D
:101330000020FFF743FD10210020FFF765FD182175
:101340000020FFF73FFE58210020FFF71BFE002082
:10135000FFF7F4FD164B93F82C309BB21946002092
:10136000FFF76EFE0020FFF7BFFD4FF4C0610120C4
:10137000FFF724FD4FF480710120FFF703FE0421E5
:101380000120FFF73FFE00210120FFF775FD20211E
:101390000120FFF739FD0020FEF71AFF054B01225F
:1013A0001A6000BF80BD00BF4C02002068630008C7
:1013B000500000205801002080B483B000AF074BDC
:1013C0007B607B689B7A002B02D0054B05221A605C
:1013D00000BF0C37BD4680BC704700BF2C02002008
:1013E0005801002080B400AF034B04221A6000BFF4
:1013F000BD4680BC704700BF5801002080B400AFDC
:1014000000BFBD4680BC704780B400AF00BFBD4682
:1014100080BC704780B584B000AF0346FB710023E9
:10142000FB60FB79062B1BD11F4B1B681B7803F05D
:101430007F03012B14D11C4B1B685B79002B0FD150
:10144000194B1B689B78222B02D1184BFB6014E0D0
:10145000154B1B689B78212B0FD1154BFB600CE0C3
:10146000114B1B681B7803F07F03212B06D1FB79FE
:10147000032B03D10F4BFB6000E000BFFB68002B88
:1014800001D102230BE0084B1B68FA689A61064BF6
:101490001B6800225A82FB680020984700231846E8
:1014A0001037BD4680BD00BF4C02002075150008F6
:1014B000991500081516000880B582B000AF0346E4
:1014C000FB71094B1B681B7803F07F03212B06D1AE
:1014D000FB790B2B03D100F089F8034600E00223CF
:1014E00018460837BD4680BD4C02002080B582B04A
:1014F00000AF0346FB80FB8804491846FEF744FE14
:10150000034618460837BD4680BD00BFA400002032
:1015100080B582B000AF0346FB80FB8804491846C3
:10152000FEF732FE034618460837BD4680BD00BFB1
:10153000AC00002080B584B000AF0346FB800B4BAD
:101540001B68DB78FB73FB7B042B01D9002309E0CC
:10155000FB7BDB00064A1A44FB8811461846FEF75F
:1015600013FE034618461037BD4680BD4C020020CE
:10157000C400002080B582B000AF0346FB80FB882A
:1015800004491846FEF700FE034618460837BD46D4
:1015900080BD00BFB400002080B582B000AF03461C
:1015A000FB80FB8804491846FEF7EEFD034618460B
:1015B0000837BD4680BD00BFBC00002080B483B0AA
:1015C00000AF03460A46FB711346BB71BB79002B83
:1015D00001D0022305E0FB79002B01D0022300E0BB
:1015E000002318460C37BD4680BC704780B483B0DA
:1015F00000AF064B1B68DB78FB71FB79044A136074
:10160000002318460C37BD4680BC70474C020020B2
:101610001C02002080B483B000AF0346FB80FB882F
:10162000002B05D1054B1B6801221A82002300E024
:10163000034B18460C37BD4680BC70474C02002057
:101640001C02002080B400AF00BFBD4680BC7047C4
:1016500080B400AFFEE700BF80B400AFFEE700BF7C
:1016600080B400AFFEE700BF80B400AFFEE700BF6C
:1016700080B400AF00BFBD4680BC704780B400AFEF
:1016800000BFBD4680BC704780B400AF00BFBD4600
:1016900080BC704780B500AF00F030FF064B1B6880
:1016A000013B054A1360054B1B78DBB20133DAB20C
:1016B000024B1A7000BF80BDE8000020AC01002082
:1016C00080B487B000AF7860396000237B6100236D
:1016D0003B610023FB6000237B617EE001227B698C
:1016E00002FA03F33B613B681A683B691340FB60F5
:1016F000FA683B699A426DD13B681B79012B03D094
:101700003B681B79022B36D17B689A687B695B004A
:10171000032101FA03F3DB431A407B689A607B687C
:101720009A683B685B7919467B695B0001FA03F3B1
:101730001A437B689A607B689B889AB27B699BB2EC
:10174000012101FA03F39BB2DB439BB213409AB22F
:101750007B689A807B689B889BB21AB23B689B79B6
:1017600019467B699BB201FA03F31BB213431BB208
:101770009AB27B689A807B681A687B695B00032158
:1017800001FA03F3DB431A407B681A607B681A682E
:101790003B681B7919467B695B0001FA03F31A4326
:1017A0007B681A607B68DA687B699BB25B00032107
:1017B00001FA03F3DB431A407B68DA607B68DA687E
:1017C0003B68DB7919467B695B0001FA03F31A4336
:1017D0007B68DA607B6901337B617B690F2B7FF665
:1017E0007DAF00BF1C37BD4680BC704780B485B05C
:1017F00000AF78600B467B800023FB737B681B8AFD
:101800009AB27B8813409BB2002B02D00123FB735A
:1018100001E00023FB73FB7B18461437BD4680BCF8
:10182000704700BF80B483B000AF78600B467B8008
:101830007A887B689A6100BF0C37BD4680BC7047D0
:1018400080B483B000AF78600B467B807B687A8879
:101850001A8500BF0C37BD4680BC704780B485B088
:1018600000AF78600B467B8013467B700023FB60E3
:101870000023BB607A787B8803F007039B0002FAA1
:1018800003F3FB607B88DB089BB218467B88DB0890
:101890009BB21A467B68083253F822207B8803F0FB
:1018A00007039B000F2101FA03F3DB4302EA030164
:1018B0007B6800F1080243F822107B88DB089BB2AA
:1018C0001A467B68083253F82220FB681343BB603A
:1018D0007B88DB089BB21A467B680832B96843F8FC
:1018E000221000BF1437BD4680BC704780B582B05F
:1018F00000AF0120FFF76EFC0123FB800C4AFB8840
:1019000013600C4B00221A80094B0A4A12881A6095
:10191000094B00221A60074B4FF4E0521A80044B27
:10192000044A12881A60002318460837BD4680BD55
:10193000405C004050020020445C004080B500AF95
:10194000094B0A4A1A60084B1B6802221A72084B9C
:10195000084A1A60084B094A1A60054B1B681B6845
:10196000984700BF80BD00BF4C0200202C02002021
:1019700024020020500000204802002080000020A7
:1019800080B483B000AF03463960FB7197F907302C
:10199000002B0BDA0D49FB7903F00F03043B3A6887
:1019A000D2B21201D2B20B441A7609E0084997F973
:1019B00007303A68D2B21201D2B20B4483F8002346
:1019C00000BF0C37BD4680BC704700BF00ED00E093
:1019D00000E100E080B582B000AF78607B68B3F1D1
:1019E000807F01D3012311E00A4A7B6823F07F4303
:1019F000013B53600F214FF0FF30FFF7C1FF054B54
:101A000000229A60034B07221A6000231846083709
:101A1000BD4680BD10E000E080B588B000AF002377
:101A2000FB610023FB768848FEF746FC864B5B682B
:101A3000864AA2FB03235B091846FFF7CBFF00F0A1
:101A40007FFD0121002003F0FDF900F091FD00F081
:101A5000BDFD00F0E7FD00F019FE7D4B00221A608D
:101A600000F0DEFA00F0F6FA00F030FC02F084FD3F
:101A70004FF4967002F0B2FD786101214FF400300E
:101A8000FEF732FE01237B6000233B720023FB72D2
:101A90003B1D19464FF09040FFF712FE00F000FB8F
:101AA00000F0F2F86B4B41F690221A606A4B6B4AD9
:101AB0006B496C4802F08CFB0FE004216A4801F08E
:101AC000D9FF0346002B08D00421674801F0FCFF32
:101AD000654B9B6B1A46654B1A60644B1B68002B69
:101AE000EBD00FE00421624801F0C4FF0346002B55
:101AF00008D004215E4801F0E7FF5D4B9B6B1A465E
:101B00005C4B1A605B4B1B68002BEBD0594B1B687E
:101B100043F697229342E5DC0FE00421564801F09A
:101B2000A9FF0346002B08D00421534801F0CCFF45
:101B3000514B9B6B1A46514B1A60504B1B68002B44
:101B4000EBD04E4B1B6844F61F629342E5DC0FE07E
:101B500004214B4801F08EFF0346002B08D00421DE
:101B6000474801F0B1FF464B9B6B1A46454B1A6044
:101B7000444B1B68002BEBD0424B1B6844F61F62A2
:101B80009342E5DC02F0A8FA0421374801F072FF25
:101B90000346002B0BD00421334801F095FF324B54
:101BA0009B6B324A12689B1A1A462C4B1A6004210E
:101BB0002F4801F05FFF0346002B0BD004212C4877
:101BC00001F082FF2A4B9B6B2A4A12689B1A1A4625
:101BD000234B1A600421284801F04CFF0346002BD8
:101BE00014D00421244801F06FFF234B9B6B1A464D
:101BF0001C4B1A601B4B1B68A3F50F53093B194A7A
:101C00001360184B1B685B00164A136004211C48C4
:101C100001F030FF0346002B0BD00421184801F0DF
:101C200053FF174B9B6B174A12689B1A1A460A4BB5
:101C30001A60094B094A0A490A4802F0C9FA0D20FC
:101C400000F058FDA0E700BFB40300201F85EB5152
:101C500060010020A8030020980100208C010020D2
:101C60009001002094010020000800409C01002009
:101C700000040040A001002000340140A401002025
:101C800000400140A801002080B58AB000AF0121CA
:101C90000420FEF765FD01210220FEF761FD012110
:101CA0004FF40050FEF73EFD01214FF48030FEF767
:101CB00039FD01214FF48010FEF716FD4FF48053DB
:101CC0003B62022387F82430032387F82530012361
:101CD00087F82630022387F8273007F120031946BA
:101CE000C848FFF7EDFC02220C21C648FFF7B6FDFD
:101CF0004FF48051C348FFF7A3FD01214FF40020AA
:101D0000FEF7F2FC40233B62022387F824300323D2
:101D100087F82530012387F82630022387F82730FB
:101D200007F120031946B848FFF7CAFC0222062132
:101D3000B548FFF793FD4021B348FFF781FD01212E
:101D40004FF40030FEF7D0FC4FF400433B62022317
:101D500087F82430032387F82530012387F82630BD
:101D6000022387F8273007F1200319464FF09040EF
:101D7000FFF7A6FC02220F214FF09040FFF76EFD07
:101D80004FF400414FF09040FFF75AFD01214FF40E
:101D90008000FEF7A9FC4FF400733B62022387F832
:101DA0002430032387F82530012387F826300223C7
:101DB00087F8273007F1200319469448FFF780FC85
:101DC000032209219148FFF749FD4FF400718F4824
:101DD000FFF736FD0023BB820023FB824FF6FF7323
:101DE000BB610023BB830023BB7707F114031946B3
:101DF000874801F0E7F90023BB820023FB824FF6FE
:101E0000FF73BB610023BB830023BB7707F114037F
:101E10001946804801F0D6F90023BB820023FB82DB
:101E20004FF6FF73BB610023BB830023BB7707F131
:101E300014031946784801F0C5F90023BB8200233A
:101E4000FB824FF6FF73BB610023BB830023BB778C
:101E500007F114031946714801F0B4F907F10803BA
:101E6000184601F027FD00233B810123BB8100239D
:101E70007B8101233B8207F108031946644801F086
:101E800031FD07F10803184601F014FD00233B81E2
:101E90000123BB8100237B8101233B8207F10803DF
:101EA00019465C4801F01EFD07F10803184601F0D1
:101EB00001FD00233B810123BB8100237B810123A2
:101EC0003B8207F108031946534801F00BFD07F167
:101ED0000803184601F0EEFC00233B810123BB817F
:101EE00000237B8101233B8207F1080319464B48FD
:101EF00001F0F8FC5021464801F0F8FD0421444867
:101F000001F010FE8021424801F024FE502141489A
:101F100001F0ECFD04213F4801F004FE80213D4822
:101F200001F018FE50213C4801F0E0FD04213A4840
:101F300001F0F8FD8021384801F00CFE50213748AF
:101F400001F0D4FD0421354801F0ECFD8021334837
:101F500001F000FE1E233B7102237B710023BB7145
:101F60000123FB711D233B7103237B710023BB7194
:101F70000123FB712E233B7104237B710023BB7172
:101F80000123FB7118233B7100237B710023BB717C
:101F90000123FB7119211E4801F096FD19211D48EE
:101FA00001F092FD19211C4801F08EFD19211B48FA
:101FB00001F08AFD01220621154801F03BFD0122B6
:101FC0000621144801F036FD01220621124801F0D5
:101FD00031FD01220621114801F02CFD01210C48A0
:101FE00001F0ACF901210B4801F0A8F901210A48E0
:101FF00001F0A4F90121094801F0A0F900BF283738
:10200000BD4680BD000C0048000800480014004890
:10201000000800400004004000340140004001403E
:1020200080B500AFFFF74EF8FFF79EF8FFF7A8F86E
:10203000FFF784FC00BF054B1B68052B03D0044B46
:102040001B68002BF7D100BF80BD00BF58010020E6
:10205000E800002080B584B000AF08233B72002365
:102060007B720723BB723023FB7200233B73002378
:102070007B731023BB7307F10803184601F00EFEB3
:1020800000233B7100237B713B1D184601F042FE8B
:10209000102001F065FE00BF1037BD4680BD00BFB7
:1020A00080B584B000AF4FF00003BB604FF0000379
:1020B0007B601C4B4FF000021A601B4B4FF000027C
:1020C0001A600023FB7315E0184800F033F8174B33
:1020D0001B681946B86803F049FE0346BB60134B02
:1020E0005B681946786803F041FE03467B60FB7B22
:1020F0000133FB73FB7B092BE6D90D49B86803F06C
:10210000F1FF03461A46074B1A600949786803F045
:10211000E9FF03461A46044B1A6000BF1037BD465C
:1021200080BD00BFC4010020C80100208001002044
:102130000000204190B58BB000AF786007F1180324
:1021400000221A609A8007F1100300221A609A8018
:102150000023FB734FF000037B6200233B6207F117
:102160000F0301222321184601F04CFE07F118034A
:1021700006222821184601F045FEFB7B03F04003B0
:10218000002B26D100233B621FE03B6A5B0001333A
:1021900007F12802134413F8103C9BB21B029AB2B9
:1021A0003B6A5B0007F128010B4413F8103C9BB21B
:1021B00013449BB21AB23B6A5B0007F128010B443F
:1021C00023F8182C3B6A01333B623B6A022BDCDDAF
:1021D00025E000233B621FE03B6A5B0007F1280219
:1021E000134413F8103C9BB21B029AB23B6A5B008B
:1021F000013307F128010B4413F8103C9BB2134440
:102200009BB21AB23B6A5B0007F128010B4423F82A
:10221000182C3B6A01333B623B6A022BDCDDFB7B03
:1022200003F03003102B06D0202B07D0002B08D151
:10223000214B7B6205E0214B7B6202E0204B7B62FD
:1022400000BF00233B6217E03B6A9B007A68D4180A
:102250003B6A5B0007F12802134433F9183C184627
:1022600003F038FE0346796A184603F03BFF034645
:1022700023603B6A01333B623B6A022BE4DD7B68EF
:102280001A68104B1B681946104603F06DFD034693
:102290001A467B681A607B681C1D7B6804331A68C9
:1022A000094B1B681946104603F05EFD0346236088
:1022B00000BF2C37BD4690BDEC91E442549264427D
:1022C0005C8F6441C4010020C801002080B584B047
:1022D00000AF00233B7314237B73E023FB730023C5
:1022E000BB7307F10C031846FEF7FEFA00233B719F
:1022F00040237B710723BB710023BB7200233B7219
:1023000000237B720823FB713B1D1846FEF782FAFF
:1023100080233B7010237B700023BB700023FB7075
:102320003B461846FEF7B2FA00BF1037BD4680BDE7
:1023300090B58BB000AF7860002387F826304FF05F
:102340007E533B6207F11402022323213220FEF761
:10235000B5FB07F10C02062328213220FEF7AEFB65
:102360007B7D03F04003002B03D0402387F8273008
:1023700002E0102387F827303B7D03F04003002B59
:1023800004D07B7D03F04003002B2FD0002387F87F
:10239000263026E097F8263097F8262052000132A2
:1023A00007F128010A4412F81C2C120212B211463D
:1023B00097F82620520007F12800024412F81C2C3E
:1023C000114497F8272091FBF2F212B25B0007F15B
:1023D00028010B4423F8102C97F82630013387F896
:1023E000263097F82630022BD4D92EE0002387F828
:1023F000263026E097F8263097F82620520007F17D
:1024000028010A4412F81C2C120212B2114697F845
:1024100026205200013207F12800024412F81C2C39
:10242000114497F8272091FBF2F212B25B0007F1FA
:1024300028010B4423F8102C97F82630013387F835
:10244000263097F82630022BD4D907F11402022344
:1024500023213220FEF732FB7B7D03F04003002B6B
:1024600003D04FF07A533B621DE03B7D03F0300315
:10247000102B0DD0102B02DC002B05D013E0202BED
:102480000AD0302B0CD00EE04FF07E533B620AE0B6
:102490004FF07C533B6206E04FF07A533B6202E020
:1024A000154B3B6200BF002387F826301BE097F8EE
:1024B00026309B007A68D41897F826305B0007F125
:1024C0002802134433F9103C184603F003FD034679
:1024D000396A184603F006FE0346236097F8263053
:1024E000013387F8263097F82630022BDFD900BF5A
:1024F0002C37BD4690BD00BF9FCDAA3D80B400AF34
:10250000064B1B68002B04D0044B1B68013B034A9D
:10251000136000BFBD4680BC704700BF5C01002057
:1025200080B400AF00231846BD4680BC704700BF92
:1025300080B400AF00231846BD4680BC704700BF82
:1025400080B500AF01214FF40030FEF7CDF8012136
:102550004FF48020FEF7C8F801214FF48040FEF7C9
:10256000E1F801214FF48020FEF7FAF800BF80BDAA
:1025700080B582B000AF072209214FF09040FFF7ED
:102580006DF907220A214FF09040FFF767F94FF4E9
:1025900000733B6002233B7103237B710023BB71FB
:1025A0000123FB713B4619464FF09040FFF788F836
:1025B0004FF480633B603B4619464FF09040FFF775
:1025C0007FF800BF0837BD4680BD00BF80B582B030
:1025D00000AF07220A211248FFF740F907220B211A
:1025E0000F48FFF73BF94FF480633B6002233B71D8
:1025F00003237B710023BB710123FB713B4619460A
:102600000748FFF75DF84FF400633B603B4619460F
:102610000348FFF755F800BF0837BD4680BD00BF2F
:102620000004004880B588B000AF4FF41653BB607B
:102630000023FB6000233B6100237B610023FB61DF
:102640000C23BB6107F1080319460E4802F046FC53
:1026500001220D490B4802F03BFD25233B7100236D
:102660007B710123BB710123FB713B1D184600F0F8
:1026700047FD0121034802F0EDFC00BF2037BD46B5
:1026800080BD00BF003801400501050080B588B05D
:1026900000AF4FF41653BB600023FB6000233B6187
:1026A00000237B610023FB610C23BB6107F108035E
:1026B00019460E4802F012FC01220D490B4802F0A7
:1026C00007FD27233B7100237B710023BB7101238E
:1026D000FB713B1D184600F013FD0121034802F079
:1026E000B9FC00BF2037BD4680BD00BF0048004098
:1026F0000501050080B582B000AF0346FB7100BF45
:102700008021084802F024FD0346002BF8D0FB7915
:102710009BB21946034802F0B9FC00BF0837BD461A
:1027200080BD00BF0038014080B500AF00BF114B35
:10273000DB6903F02003002BF9D00E4802F0B8FC4F
:102740000346DAB20C4B1A700B4B1B781A460B4B34
:102750001A60094B1B781A46094B1A60064B1B7806
:102760001A46084B1A60044B1B781A46064B1A602F
:1027700000BF80BD0038014064020020F00000204E
:10278000F4000020F8000020FC00002080B500AF1D
:1027900000BF1E4BDB6903F02003002BF9D01B4860
:1027A00002F086FC0346DAB2194B1A70184B1B78FC
:1027B000242B02D1174B00221A70164B1B781A4695
:1027C000134B1B781946144B43F82210104B1B78FF
:1027D0001846FFF78FFF0F4B1B780133DAB20D4B12
:1027E0001A700B4B1B780D2B03D0094B1B780A2B4F
:1027F0000AD100220949054802F06AFC0D20FFF7C2
:1028000079FF0A20FFF776FF00BF80BD0048004037
:10281000A6030020C001002074020020050105006D
:1028200080B500AF002000F0F1F9024B01221A70D0
:1028300000BF80BDC101002080B500AF0221134858
:1028400001F018F90346002B03D002210F4801F0D4
:102850003BF904210D4801F00DF90346002B08D087
:1028600004210A4801F030F9084B9B6B1A46084BCB
:102870001A600121054801F0FDF80346002B03D042
:102880000121024801F020F900BF80BD000800408E
:102890008C01002080B500AF0221134801F0EAF856
:1028A0000346002B03D002210F4801F00DF904214B
:1028B0000D4801F0DFF80346002B08D004210A4838
:1028C00001F002F9084B9B6B1A46084B1A60012174
:1028D000054801F0CFF80346002B03D00121024840
:1028E00001F0F2F800BF80BD00040040900100201C
:1028F00080B500AF0221134801F0BCF80346002B5D
:1029000003D002210F4801F0DFF804210D4801F047
:10291000B1F80346002B08D004210A4801F0D4F88E
:10292000084B9B6B1A46084B1A600121054801F0C1
:10293000A1F80346002B03D00121024801F0C4F89E
:1029400000BF80BD003401409401002080B584B0F8
:1029500000AF012000F05AF902214FF09040FEF73D
:1029600045FF0346012B1AD101211D4800F0E6FC6A
:102970000123BB600023BB7307F10803184600F076
:102980004BF80123BB6000233B730C237B730123B3
:10299000BB7307F10803184600F03EF81CE010482E
:1029A00000F0A0FC03461A460E4B1A6000210C48AA
:1029B00000F0C4FC0023BB713B46184600F02CF825
:1029C00001233B6000233B7108237B710123BB7112
:1029D0003B46184600F020F800BF1037BD4680BDCA
:1029E00000080040A803002080B500AF022000F0DE
:1029F0000DF900BF80BD00BF80B500AF032000F01F
:102A000005F900BF80BD00BF80B500AF042000F015
:102A1000FDF800BF80BD00BF80B485B000AF786016
:102A20000023FB60754BFB607B689B79002B00F0FB
:102A3000C8807B681B685B0903F1007303F50263C0
:102A40005B0118467B681B685B0903F1007303F5A3
:102A500002635B011A687B681B6803F01F03012196
:102A600001FA03F3DB43134003607B681B685B09D7
:102A70005A01634B134418467B681B685B095A0173
:102A80005F4B13441A687B681B6803F01F03012126
:102A900001FA03F3DB43134003607B681B791A469A
:102AA0007B681B685B095B011344FA681344FB6095
:102AB000FB68FA6812687968096801F01F01012053
:102AC00000FA01F10A431A604C4BFB607B681B68FB
:102AD0005B095A014B4B134418467B681B685B0922
:102AE0005A01484B13441A687B681B6803F01F03A4
:102AF000012101FA03F3DB43134003607B681B6889
:102B00005B095A01404B134418467B681B685B09FC
:102B10005A013D4B13441A687B681B6803F01F037E
:102B2000012101FA03F3DB43134003607B685B7907
:102B3000102B2ED17B681B685B095A01314B134463
:102B400018467B681B685B095A012E4B13441B68AF
:102B50007A68126802F01F02012101FA02F213439F
:102B600003607B681B685B095A01274B13441846B6
:102B70007B681B685B095A01234B13441B687A6806
:102B8000126802F01F02012101FA02F213430360EE
:102B90002FE07B685B791A467B681B685B095B01E9
:102BA0001344FA681344FB60FB68FA68126879689A
:102BB000096801F01F01012000FA01F10A431A60BF
:102BC00017E07B681B791A467B681B685B095B0111
:102BD0001344FA681344FB60FB68FA6811687A686A
:102BE000126802F01F02012000FA02F2D2430A40EA
:102BF0001A6000BF1437BD4680BC70470004014016
:102C000004040140080401400C04014080B483B076
:102C100000AF78607B685B095A01074B1344194683
:102C20007B6803F01F03012202FA03F30B6000BF6D
:102C30000C37BD4680BC70471404014080B582B09B
:102C400000AF78607B68174A93420AD101214FF4A4
:102C50008050FDF7A3FD00214FF48050FDF79EFD4D
:102C60001CE07B68104A93420AD101214FF4804056
:102C7000FDF7B2FD00214FF48040FDF7ADFD0DE002
:102C80007B680A4A934209D101214FF40040FDF7C5
:102C9000A3FD00214FF40040FDF79EFD00BF083763
:102CA000BD4680BD0030014000380040003C00407F
:102CB00080B485B000AF786039600023FB813B6849
:102CC0005B88B3F5827F36D17B681B88FB81FB89EB
:102CD00003F44153FB813B681A883B685B881343CC
:102CE0009AB23B68D9883B681B890B4399B23B6811
:102CF00058893B689B89034398B23B68DB8903434F
:102D00009BB20B439BB213439AB2FB891343FB81E3
:102D10007B68FA891A807B689B88FB81FB8923F496
:102D20007063FB813B689A88FB891343FB817B6856
:102D3000FA899A8035E07B689B88FB81FB8923F4C4
:102D40007063FB813B689A88FB891343FB817B6836
:102D5000FA899A807B681B88FB81FB8903F44153C5
:102D6000FB813B681A883B685B8813439AB23B68D7
:102D7000D9883B681B890B4399B23B6858893B68EB
:102D80009B89034398B23B68DB8903439BB20B43A7
:102D90009BB213439AB2FB891343FB817B68FA8988
:102DA0001A807B689B8B9BB223F400639AB27B688A
:102DB0009A833B681A8A7B681A8200BF1437BD4623
:102DC00080BC704780B483B000AF78600B46FB7066
:102DD000FB78002B08D07B681B889BB243F0400334
:102DE0009AB27B681A8007E07B681B889BB223F04D
:102DF00040039AB27B681A8000BF0C37BD4680BC86
:102E0000704700BF80B483B000AF78600B467B8012
:102E10007B689B889BB223F480539AB27B689A802C
:102E20007B689B889AB27B8813439AB27B689A80AE
:102E300000BF0C37BD4680BC704700BF80B485B072
:102E400000AF78600B46FB700023FB607B68FB6083
:102E5000FB680C33FB60FB68FA781A7000BF14370C
:102E6000BD4680BC704700BF80B485B000AF7860BD
:102E70000023FB607B68FB60FB680C33FB60FB6836
:102E80001B78DBB218461437BD4680BC704700BFC4
:102E900080B485B000AF78600B467B800023FB7365
:102EA0007B681B899AB27B8813409BB2002B02D0AF
:102EB0000123FB7301E00023FB73FB7B18461437EF
:102EC000BD4680BC704700BF80B485B000AF78605D
:102ED00039600023FB607B681B6823F001027B687C
:102EE0001A607B681B68FB60FA68284B1340FB6024
:102EF0003B685A683B689B681B021343FA6813439C
:102F0000FB607B68FA681A603B681B6823F070629C
:102F10007B681A617B681B6843F001027B681A605A
:102F20000023FB607B68FA689A607B68FA68DA6065
:102F30003B689A693B681B691343FB607B68FA68CE
:102F40009A607B689B6843F400427B689A603B68A8
:102F5000DB68FB607B681A68FB681A437B681A6051
:102F60007B685B68FB60FB6823F0784323F40043D5
:102F7000FB603B685B69FA681343FB607B68FA6837
:102F80005A6000BF1437BD4680BC7047FFE0CF00D9
:102F900080B483B000AF78600B46FB70FB78002BE9
:102FA00006D07B681B6843F001027B681A6005E06D
:102FB0007B681B6823F001027B681A6000BF0C3736
:102FC000BD4680BC704700BF80B487B000AFF860DA
:102FD0007B600B467B8113467B7200237B61FB6821
:102FE0005B687B617A690D4B13407B617B89C3F31E
:102FF00009027B7A1B0403F47F031A437B681A439C
:103000003B6A13437A6913437B61FB687A695A60B0
:1030100000BF1C37BD4680BC704700BF009800FC55
:1030200080B483B000AF78600B46FB70FA787B68A1
:103030009A6200BF0C37BD4680BC704780B483B035
:1030400000AF78607B685B6ADBB218460C37BD4620
:1030500080BC704780B485B000AF786039600023D1
:10306000BB600023FB737B689B69BB60BA683B68ED
:103070001340BB60BB68002B02D00123FB7301E04F
:103080000023FB73FB7B18461437BD4680BC70479A
:1030900080B483B000AF786039607B683A68DA61E9
:1030A00000BF0C37BD4680BC704700BF80B400AF86
:1030B000074B00221A60074B4FF43F421A80064B21
:1030C000044A12881A6000231846BD4680BC704727
:1030D000445C004050020020405C004080B483B05B
:1030E00000AF7860054A7B6843F0BF6343F4003368
:1030F000D36000BF0C37BD4680BC704700ED00E0D8
:1031000080B487B000AF786000237B6100233B610F
:103110000F23FB607B68DB78002B3AD0274BDB6802
:10312000DB4303F4E0631B0A7B617B69C3F10403A7
:103130003B61FA687B6922FA03F3FB607B685B788A
:103140001A463B6902FA03F37B617B689B781A4657
:10315000FB6813407A6913437B617B691B017B61C8
:10316000174A7B681B787969C9B213440A4683F809
:103170000023134A7B681B785B09DBB218467B6827
:103180001B7803F01F03012101FA03F342F82030FA
:103190000FE00B497B681B785B09DBB218467B6844
:1031A0001B7803F01F0301229A4000F1200341F82D
:1031B000232000BF1C37BD4680BC704700ED00E0F7
:1031C00000E100E080B485B000AF78603960002392
:1031D000FB817B681B88FB817B682C4A93420FD064
:1031E0007B682B4A93420BD07B68B3F1804F07D0AA
:1031F0007B68284A934203D07B68274A934208D1D0
:10320000FB8923F07003FB813B685A88FB891343D9
:10321000FB817B68214A93420CD07B68204A934211
:1032200008D0FB8923F44073FB813B681A89FB8932
:103230001343FB817B68FA891A803B685A687B6874
:10324000DA623B681A887B681A857B680F4A93426A
:103250000FD07B680E4A93420BD07B68114A934291
:1032600007D07B68104A934203D07B680F4A934291
:1032700004D13B689B7A9AB27B681A867B680122EC
:103280005A6100BF1437BD4680BC7047002C014016
:1032900000340140000400400008004000100040DD
:1032A000001400400040014000440140004801403B
:1032B00080B483B000AF78607B684FF0FF325A6013
:1032C0007B6800221A807B6800221A817B680022BA
:1032D0005A807B6800229A7200BF0C37BD4680BCC2
:1032E000704700BF80B483B000AF78607B685B6AD2
:1032F00018460C37BD4680BC704700BF80B483B011
:1033000000AF78600B46FB70FB78002B08D07B6821
:103310001B889BB243F080039AB27B681A8007E057
:103320007B681B889BB223F080039AB27B681A806B
:1033300000BF0C37BD4680BC704700BF80B483B06F
:1033400000AF78600B46FB70FB78002B08D07B68E1
:103350001B889BB243F001039AB27B681A8007E096
:103360007B681B889BB223F001039AB27B681A80AA
:1033700000BF0C37BD4680BC704700BF80B487B02B
:1033800000AF786039600023FB6000237B6100237D
:103390003B617B681B6A23F001027B681A627B68D1
:1033A0001B6A7B617B685B683B617B689B69FB6038
:1033B000FB6823F4803323F07003FB60FB6823F089
:1033C0000303FB603B681B68FA681343FB607B697F
:1033D00023F002037B613B689B891A467B69134398
:1033E0007B613B689B881A467B6913437B617B68E2
:1033F000264A93420FD07B68254A93420BD07B68C4
:10340000244A934207D07B68234A934203D07B68C7
:10341000224A934227D17B6923F008037B613B68F2
:10342000DB891A467B6913437B617B6923F00403C4
:103430007B613B68DB881A467B6913437B613B6990
:1034400023F480733B613B6923F400733B613B6869
:103450001B8A1A463B6913433B613B685B8A1A46E9
:103460003B6913433B617B683A695A607B68FA6841
:103470009A613B689A687B685A637B687A691A62CA
:1034800000BF1C37BD4680BC704700BF002C014008
:103490000034014000400140004401400048014028
:1034A00080B487B000AF786039600023FB600023F0
:1034B0007B6100233B617B681B6A23F010027B6801
:1034C0001A627B681B6A7B617B685B683B617B6817
:1034D0009B69FB60FB6823F0807323F4E043FB608F
:1034E000FB6823F44073FB603B681B681B02FA68AF
:1034F0001343FB607B6923F020037B613B689B895E
:103500001B017A6913437B613B689B881B017A69C5
:1035100013437B617B68204A934203D07B681F4A38
:10352000934227D17B6923F080037B613B68DB8971
:103530001B017A6913437B617B6923F040037B6144
:103540003B68DB881B017A6913437B613B6923F489
:1035500080633B613B6923F400633B613B681B8AEA
:103560009B003A6913433B613B685B8A9B003A6965
:1035700013433B617B683A695A607B68FA689A61D9
:103580003B689A687B689A637B687A691A6200BFB5
:103590001C37BD4680BC7047002C01400034014000
:1035A00080B487B000AF786039600023FB600023EF
:1035B0007B6100233B617B681B6A23F480727B681C
:1035C0001A627B681B6A7B617B685B683B617B6816
:1035D000DB69FB60FB6823F07003FB60FB6823F092
:1035E0000303FB603B681B68FA681343FB607B695D
:1035F00023F400737B613B689B891B027A69134348
:103600007B613B689B881B027A6913437B617B6803
:10361000204A934203D07B681F4A934227D17B699B
:1036200023F400637B613B68DB891B027A691343E7
:103630007B617B6923F480637B613B68DB881B02D1
:103640007A6913437B613B6923F480533B613B6997
:1036500023F400533B613B681B8A1B013A69134307
:103660003B613B685B8A1B013A6913433B617B68A2
:103670003A695A607B68FA68DA613B689A687B68E5
:10368000DA637B687A691A6200BF1C37BD4680BC6A
:10369000704700BF002C01400034014080B487B067
:1036A00000AF7860396000233B610023FB6000239A
:1036B0007B617B681B6A23F480527B681A627B689B
:1036C0001B6AFB607B685B687B617B68DB693B61D5
:1036D0003B6923F4E0433B613B6923F440733B6166
:1036E0003B681B681B023A6913433B61FB6823F488
:1036F0000053FB603B689B891B03FA681343FB6024
:103700003B689B881B03FA681343FB607B68114A84
:10371000934203D07B68104A934209D17B6923F41A
:1037200080437B613B681B8A9B017A6913437B6101
:103730007B687A695A607B683A69DA613B689A68A3
:103740007B681A647B68FA681A6200BF1C37BD4642
:1037500080BC7047002C01400034014080B483B02D
:1037600000AF786039607B683A685A6300BF0C37F5
:10377000BD4680BC704700BF80B483B000AF7860A6
:1037800039607B683A689A6300BF0C37BD4680BCDD
:10379000704700BF80B483B000AF786039607B6849
:1037A0003A68DA6300BF0C37BD4680BC704700BF83
:1037B00080B483B000AF786039607B683A681A647F
:1037C00000BF0C37BD4680BC704700BF80B485B0D9
:1037D00000AF78600B467B800023FB607B689B69B1
:1037E000FB60FB6823F00803FB607B88FA681343E7
:1037F000FB607B68FA689A6100BF1437BD4680BCE5
:10380000704700BF80B485B000AF78600B467B8006
:103810000023FB607B689B69FB60FB6823F400630B
:10382000FB607B881B021A46FB681343FB607B68C6
:10383000FA689A6100BF1437BD4680BC704700BF6C
:1038400080B485B000AF78600B467B800023FB60BE
:103850007B68DB69FB60FB6823F00803FB607B8807
:10386000FA681343FB607B68FA68DA6100BF1437BB
:10387000BD4680BC704700BF80B485B000AF7860A3
:103880000B467B800023FB607B68DB69FB60FB6889
:1038900023F40063FB607B881B021A46FB6813431A
:1038A000FB607B68FA68DA6100BF1437BD4680BCF4
:1038B000704700BF80B483B000AF78607B6800229F
:1038C0001A807B6800225A807B6801229A807B687C
:1038D0000022DA807B6800221A8100BF0C37BD46C7
:1038E00080BC704780B584B000AF78603960002339
:1038F000FB810123BB813B685B88002B02D1022343
:10390000FB8101E00023FB813B689B88012B02D1F6
:103910000223BB8101E00123BB813B681B88002B94
:103920001CD13B6859883B689A883B681B8978683A
:1039300000F028F93B68DB881946786800F02EF81B
:103940003B681B89BA89F989786800F05BF93B68A4
:10395000DB881946786800F039F81BE03B68598825
:103960003B689A883B681B89786800F04BF93B6894
:10397000DB881946786800F029F83B681B89BA890A
:10398000F989786800F0FEF83B68DB8819467868AA
:1039900000F004F800BF1037BD4680BD80B483B08E
:1039A00000AF78600B467B807B689B6923F00C023C
:1039B0007B689A617B689A697B881A437B689A6105
:1039C00000BF0C37BD4680BC704700BF80B483B0D9
:1039D00000AF78600B467B807B689B6923F4406274
:1039E0007B689A617B689A697B881B021A437B68B3
:1039F0009A6100BF0C37BD4680BC704780B483B06D
:103A000000AF78600B46FB70FB78002B06D07B681C
:103A10005B6C43F400427B685A6405E07B685B6C36
:103A2000C3F30E027B685A6400BF0C37BD4680BCEE
:103A3000704700BF80B483B000AF78600B467B80D6
:103A400013467B707B78002B06D07B68DA687B8816
:103A50001A437B68DA6007E07B68DB687A88D243C8
:103A600092B21A407B68DA6000BF0C37BD4680BC5A
:103A7000704700BF80B485B000AF78600B467B8094
:103A80000023FB730023BB8100237B817B681B69C0
:103A90009AB27B881340BB817B68DB689AB27B88D3
:103AA00013407B81BB89002B05D07B89002B02D082
:103AB0000123FB7301E00023FB73FB7B18461437E3
:103AC000BD4680BC704700BF80B483B000AF786053
:103AD0000B467B807B88DB439BB21A467B681A616E
:103AE00000BF0C37BD4680BC704700BF80B485B0B6
:103AF00000AF78600B467B800023FB817B689B686E
:103B0000FB81FB8923F07003FB81FA897B881343D7
:103B1000FB81FA897B689A6000BF1437BD4680BC80
:103B2000704700BF80B483B000AF786039607B68B5
:103B30009B6823F4803323F007037A6893607B68E3
:103B40009A683B681A437B689A6000BF0C37BD4691
:103B500080BC704780B483B000AF78600B467B8038
:103B60007B689A684FF67F7313407A6893607B682E
:103B70009A687B881A437B689A6000BF0C37BD4601
:103B800080BC704780B487B000AFF860084611462B
:103B90001A4603467B810B463B811346FB8000237C
:103BA0007B6100233B61FB681B6A23F00102FB6819
:103BB0001A62FB689B697B61FB681B6A3B617B69DE
:103BC00023F0F3037B613A89FB881B0113437A6975
:103BD00013437B613B6923F00A033B617B8943F01C
:103BE00001039BB21A463B6913433B61FB687A6948
:103BF0009A61FB683A691A6200BF1C37BD4680BCF7
:103C0000704700BF80B489B000AFF8600846114625
:103C10001A4603467B810B463B811346FB800023FB
:103C2000FB610023BB6100237B61FB681A6A4FF6CE
:103C3000EF731340FA681362FB689B69FB61FB68D2
:103C40001B6ABB617B891B019BB27B61FB6923F40F
:103C50007343FB61FB881B03FA691343FB613B89D8
:103C60001B02FA691343FB61BA694FF65F73134095
:103C7000BB617B699BB243F010039BB21A46BB69E0
:103C80001343BB61FB68FA699A61FB68BA691A62FF
:103C900000BF2437BD4680BC704700BF80B584B0EC
:103CA00000AF78600023FB730023BB7300F0E2F8E1
:103CB0007B681A787B685B781343DAB27B689B7801
:103CC0001343DAB27B68DB781343DAB2FB7B13432E
:103CD000DBB2FB737B681A797B685B791343DAB2DA
:103CE0007B689B791343DAB2BB7B1343DBB2BB73B4
:103CF00007F10F0301222021184600F053F807F1C5
:103D00000E0301222321184600F04CF800BF1037A3
:103D1000BD4680BD80B584B000AF786007F10F0369
:103D200001222121184600F06DF8FB7B23F03F03B0
:103D3000DBB2FB737B681A787B685B781343DAB27B
:103D4000FB7B1343DBB2FB7307F10F03012221213D
:103D5000184600F027F800BF1037BD4680BD00BFF1
:103D600080B584B000AF0346FB7107F10F03012259
:103D70002421184600F046F8FB7B23F01003DBB249
:103D8000FB73FA7BFB791343DBB2FB7307F10F0381
:103D900001222421184600F005F800BF1037BD4667
:103DA00080BD00BF80B582B000AF78600B46FB706D
:103DB00013463B803B88012B03D9FB7843F040033B
:103DC000FB7008210E48FDF73BFDFB78184600F01C
:103DD000FBF80AE07B681B78184600F0F5F83B8892
:103DE000013B3B807B6801337B603B88002BF1D13A
:103DF00008210348FDF716FD00BF0837BD4680BD0A
:103E00000010004880B582B000AF78600B46FB70B0
:103E100013463B803B88012B04D9FB7863F03F03BA
:103E2000FB7003E0FB7863F07F03FB700821104810
:103E3000FDF706FDFB78184600F0C6F80CE0002000
:103E400000F0C2F803461A467B681A703B88013BB3
:103E50003B807B6801337B603B88002BEFD10821DE
:103E60000348FDF7DFFC00BF0837BD4680BD00BF3B
:103E70000010004880B588B000AF01214FF4805099
:103E8000FCF750FC01214FF40030FCF72DFC012120
:103E90004FF40010FCF728FC01214FF40010FCF750
:103EA00023FC01214FF40010FCF71EFC0522052124
:103EB0004FF09040FDF7D2FC052206214FF09040D4
:103EC000FDF7CCFC052207214FF09040FDF7C6FC22
:103ED00002233B770023BB770023FB7703237B7709
:103EE0002023BB6107F1180319464FF09040FDF7FE
:103EF000E7FB8023BB6107F1180319464FF09040A0
:103F0000FDF7DEFB4023BB6107F1180319464FF0B4
:103F10009040FDF7D5FB2A48FEF790FE0023BB80BA
:103F20004FF4E0633B8100237B810023BB814FF48E
:103F30000073FB8110233B8200237B820723BB821B
:103F40004FF48273FB803B1D19461D48FEF7B0FEFF
:103F50004FF480511A48FEF755FF01211848FEF72B
:103F600031FF0823BB6101233B770023BB77032389
:103F70007B7707F1180319461248FDF7A1FB0821CA
:103F80001048FDF74FFC0123BB6100233B77002362
:103F9000BB7703237B770023FB7707F118031946D0
:103FA0000848FDF78DFB0223BB6107F11803194692
:103FB0000448FDF785FB00BF2037BD4680BD00BF2C
:103FC000003001400010004880B582B000AF0346C9
:103FD000FB711E4B4FF480521A600BE01B4B1B68A9
:103FE0005A1E1A490A60002B04D1FEF799FA0346BB
:103FF000DBB227E002211648FEF74AFF0346002BFA
:10400000ECD0FB7919461248FEF718FF0F4B4FF41E
:1040100080521A600BE00D4B1B685A1E0B490A6058
:10402000002B04D1FEF77CFA0346DBB20AE0012143
:104030000748FEF72DFF0346002BECD00448FEF79F
:1040400013FF034618460837BD4680BD0001002017
:104050000030014090B484B000AF03460A46FB71C3
:104060001346BB710023FB60BB7903F003039B0085
:104070000F2202FA03F3FB601649BB799B08DBB2FF
:104080001846144ABB799B08DBB2023352F823204E
:10409000FB68DB431A40831C41F823200D48BB79A1
:1040A0009B08DBB21C460B4ABB799B08DBB2023390
:1040B00052F82320F979BB7903F003039B0001FA3E
:1040C00003F31A43A31C40F8232000BF1037BD465A
:1040D00090BC70470000014080B586B000AF364B01
:1040E0001B68184601F0F6FE034619464FF07E5055
:1040F00001F0F8FF03463149184601F03FFF03463F
:10410000184602F001F902462D4B1A602A4B1B6833
:10411000184601F0DFFE034619464FF07E5001F0CD
:10412000E1FF03461A46274B1A60274B7B61224B5F
:104130001B687A6992FBF3F21F4B1B6892FBF3F347
:10414000013B3B6101210120FCF70AFB4FF42F707A
:1041500000F0B2FA02461D4B1A603B699BB2BB806D
:104160000023FB80144B1B68013BBB600023BB8119
:104170000023BB733B1D19464FF08040FFF722F828
:1041800001214FF08040FFF7D9F8012201214FF0C3
:104190008040FFF74FFC1C233B7000237B70012302
:1041A000BB700123FB703B461846FEF7A9FF00BF1A
:1041B0001837BD4680BD00BF3001002000007A44A2
:1041C0002004002040040020005125022C0400207F
:1041D000B0B584B000AFF860B9607A603B607B68CE
:1041E0001B68184601F0CCFA5BA3D3E9002301F069
:1041F0002DFB03460C4625461C46BB681B6818462B
:1042000001F0BEFA56A3D3E9002301F01FFB0246DA
:104210000B462046294601F067F903460C4618462E
:10422000214601F025FD02464F4B1A60BB681B6812
:10423000184601F0A5FA4AA3D3E9002301F006FBD2
:1042400003460C4625461C467B681B68184601F051
:1042500097FA41A3D3E9002301F0F8FA02460B468E
:104260002046294601F03EF903460C4618462146F1
:1042700001F0FEFC02463D4B1A60FB681B6803F52B
:10428000D75314333A4A1360FB681B6803F5D753BE
:104290001433384A1360FB681B6803F5D753143393
:1042A000354A1360FB681B6803F5D7531433334A50
:1042B00013603B681A682E4B1B6813442C4A13602A
:1042C0002C4B1A683B681B68D31A2A4A13603B6858
:1042D0001A68294B1B681344274A1360274B1A6836
:1042E0003B681B68D31A254A1360214B1B6803F5F2
:1042F000FA63234A13601F4B1B6803F5FA63214AD4
:1043000013601D4B1B6803F5FA631F4A13601B4BB8
:104310001B6803F5FA631D4A1360154B1B68A3F570
:10432000FA631B4A1360134B1B68A3F5FA63194A1F
:104330001360114B1B68A3F5FA63174A13600F4B08
:104340001B68A3F5FA63154A136000BF1037BD461A
:10435000B0BD00BFAFF300809A9999999999B93F80
:10436000295C8FC2F528BC3FF4010020F001002039
:10437000080100200C010020100100201401002081
:104380003C040020FC03002034040020180400201A
:10439000540400204404002010040020F8030020EE
:1043A00080B400AF2B4B1A682B4B1B689A4204DB7E
:1043B000294B1B68274A136009E0264B1A68274BD4
:1043C0001B689A4203DC254B1B68224A1360244B6E
:1043D0001A68244B1B689A4204DB224B1B68204A54
:1043E000136009E01E4B1A681F4B1B689A4203DCDE
:1043F0001D4B1B681A4A13601C4B1A681C4B1B6828
:104400009A4204DB1A4B1B68184A136009E0174BE9
:104410001A68184B1B689A4203DC164B1B68134A38
:104420001360154B1A68154B1B689A4204DB134B3B
:104430001B68114A136009E00F4B1A68104B1B6888
:104440009A4203DC0E4B1B680B4A136000BFBD464B
:1044500080BC7047080400203404002010040020B1
:104460004C040020FC0300204404002058040020D9
:104470003C040020540400202804002018040020DC
:10448000F803002080B400AF334B1A68334B1B682D
:104490009A4204DB314B1B682F4A13600DE02F4B0F
:1044A0001B68A3F57A722C4B1B689A4205DB2B4BD9
:1044B0001B68A3F57A73284A1360294B1A68294BA5
:1044C0001B689A4204DB274B1B68254A13600DE0EA
:1044D000244B1B68A3F57A72214B1B689A4205DBBB
:1044E000204B1B68A3F57A731D4A13601E4B1A6894
:1044F0001E4B1B689A4204DB1C4B1B681A4A136054
:104500000DE01A4B1B68A3F57A72174B1B689A4291
:1045100005DB164B1B68A3F57A73134A1360144B23
:104520001A68144B1B689A4204DB124B1B68104A32
:1045300013600DE00F4B1B68A3F57A720C4B1B68E0
:104540009A4205DB0B4B1B68A3F57A73084A13608C
:1045500000BFBD4680BC7047080400201001002049
:104560004C0400200C010020580400200801002009
:10457000280400201401002080B582B000AF012182
:104580004FF40010FCF7B0F84FF4D4433B60022323
:104590003B7103237B710023BB710123FB713B46FD
:1045A00019460D48FDF78CF8022209210A48FDF74B
:1045B00055F902220B210848FDF750F902220E217D
:1045C0000548FDF74BF902220D210348FDF746F996
:1045D00000BF0837BD4680BD0010004880B588B0D8
:1045E00000AF01214FF40060FCF79CF807F11403C1
:1045F0001846FEF75DFE2D4B1B689BB2BB8240F652
:104600002C33BB610023BB830023FB8207F114031F
:1046100019462748FEF7D6FD60233B600123BB8087
:10462000244B1B685B00BB600023BB814FF480738D
:104630003B820023FB800023FB814FF480737B824D
:104640003B4619461A48FEF799FE08211848FFF71D
:10465000BDF83B4619461648FEF722FF08211448CC
:10466000FFF7D0F83B4619461148FEF799FF08219D
:104670000F48FFF7E5F83B4619460D48FFF70EF8DF
:1046800008210B48FFF7F8F800210948FEF736FE2D
:1046900001210748FFF7B2F901210548FEF74EFE58
:1046A00000BF18462037BD4680BD00BF1C04002057
:1046B000002C014014040020B0B590B000AF786029
:1046C0005F4BFB635F4BBB63FA6BBB6B92FBF3F31C
:1046D000013B7B63FA6BBB6B92FBF3F3013B5A4AE2
:1046E0001360BA6B7B6892FBF3F33B63386B01F0AA
:1046F000F1FB0346184601F055F804460D4678686C
:1047000001F03EF802460B464FF000004F4901F021
:10471000C7F902460B462046294601F0C1F9034677
:104720000C461846214601F0A3FA0346FB62386B9B
:1047300001F0D0FB0346184601F034F804460D465C
:10474000786801F01DF802460B464FF000003F4923
:1047500001F0A6F902460B462046294601F0A0F9D1
:1047600003460C461846214601F082FA0246384BB1
:104770001A6001214FF40060FBF7D4FF07F120031A
:104780001846FEF795FD7B6B9BB23B8440F62933C0
:104790007B6200233B8500237B8407F120031946BD
:1047A0002C48FEF70FFD6023FB6001233B82FB6A70
:1047B0005B007B6100233B834FF48073BB8300234A
:1047C0007B8200237B834FF48073FB8307F10C0310
:1047D00019462048FEF7D2FD08211E48FEF7F6FFD5
:1047E00007F10C0319461B48FEF75AFE0821194829
:1047F000FFF708F807F10C0319461648FEF7D0FE3C
:1048000008211448FFF71CF807F10C03194611485A
:10481000FEF744FF08210F48FFF72EF800210D484E
:10482000FEF76CFD01210B48FFF7E8F8012109486C
:10483000FEF784FD3B6B18464037BD46B0BD00BF58
:1048400000A24A0480841E001C04002000408F4007
:1048500014040020002C014080B586B000AFF86041
:10486000B9607A60BB687A6802FB03F35B09184A97
:10487000A2FB0323DB097B61FB68013B032B23D8ED
:1048800001A252F823F000BF99480008A54800088B
:10489000B1480008BD4800087B6919460D48FEF77D
:1048A0005DFF11E07B6919460A48FEF765FF0BE0E2
:1048B0007B6919460748FEF76DFF05E07B691946DD
:1048C0000448FEF775FF00BF00BF1837BD4680BD26
:1048D000C55A7C0A002C0140B0B584B000AF01215C
:1048E0004FF08040FFF7C6F80346002B00F08082AF
:1048F0000023FB600023BB6000237B6000233B6040
:1049000001214FF08040FFF7DFF8FFF767FE924B81
:104910001B68B3F5FA5FC0F2DC819048FDF70AFC32
:104920008F48FDF705FD8E4B5A688D4B9B681946E5
:10493000104600F025FC03468A49184601F01EFB8C
:104940000346184601F0E0FC0246874B1A60844B90
:104950001A68834B9B681946104600F011FC034609
:104960008049184601F00AFB0346184601F0CCFCCA
:1049700002467E4B1A607E4B1B68184601F0AAFA6D
:104980000546764B1C687B4B1B68184601F0A2FA63
:1049900003461946204601F0F1FA03461946284617
:1049A00001F0E4F90346184601F0AEFC0246704BF4
:1049B0001A606F4B1B68184600F0E2FE62A3D3E951
:1049C000002300F043FF03460C4625461C46674B78
:1049D0001B68184600F0D4FE5DA3D3E9002300F065
:1049E00035FF02460B462046294600F07DFD034672
:1049F0000C46184621464FF000025F4B01F050F87C
:104A000003460C461846214601F032F902465B4B3C
:104A10001A605B4B1B68184601F05CFA05464F4B69
:104A20005C68544B1B68184601F054FA034619465B
:104A3000204601F0A3FA03461946284601F096F9EC
:104A40000346184601F060FC02464D4B1A604C4B81
:104A50001B68184600F094FE3BA3D3E9002300F046
:104A6000F5FE03460C4625461C463F4B1B68184680
:104A700000F086FE36A3D3E9002300F0E7FE0246ED
:104A80000B462046294600F02FFD03460C461846EB
:104A900021464FF00002384B01F002F803460C4665
:104AA0001846214601F0E4F80246364B1A60364BB0
:104AB0001A68324B1B68D31AFB60344B1A68314BAF
:104AC0001B68D31ABB60324B1A68324B1B689A4280
:104AD00011DA314B1A68314B1B689A420BDA2C4BB6
:104AE0001A682F4B1B689A4205DD2B4B1A682D4B19
:104AF0001B689A4204DC2C4B1B682B4A136005E0B0
:104B0000294B1A68FB681344274A1360274B1A681D
:104B1000274B1B689A4211DA264B1A68264B1B68F2
:104B20009A420BDA214B1A68244B1B689A4205DD26
:104B3000204B1A68224B1B689A4245DC214B1B68AC
:104B4000204A136046E000BF5C8FC2F5285CEF3F4F
:104B50007B14AE47E17A94BF08010020D801002001
:104B6000E401002000CF5F4748040020300400200B
:104B700050040020200400200000244038040020BD
:104B8000000400200C040020F0010020F4010020AB
:104B9000580400203C0400200804002034040020B5
:104BA0005404002010040020F80100204C040020D0
:104BB000FC030020280400201804002044040020E6
:104BC000F8030020FC0100208D4B1A68BB681344D9
:104BD0008B4A13608B4B1B68FA68D31A7B60894A37
:104BE000FB681360884B1B68BA68D31A3B60864A1F
:104BF000BB681360F86800F0C3FD4FF00002834B00
:104C000000F024FE03460C4625461C46804B1B68DC
:104C1000184600F0B5FD78A3D3E9002300F016FE96
:104C200002460B462046294600F05EFC03460C4631
:104C300025461C46786800F0A3FD4FF00002734B38
:104C400000F004FE02460B462046294600F04CFCCC
:104C500003460C461846214601F032F802466D4BD9
:104C60001A60B86800F08CFD4FF00002674B00F04E
:104C7000EDFD03460C4625461C46614B1B68184655
:104C800000F07EFD5CA3D3E9002300F0DFFD0246C7
:104C90000B462046294600F027FC03460C462546D5
:104CA0001C46386800F06CFD4FF00002574B00F0D6
:104CB000CDFD02460B462046294600F015FC034672
:104CC0000C461846214600F0FBFF0246524B1A6084
:104CD00007E0504B4FF000021A604F4B4FF00002BC
:104CE0001A604E4B1B68184601F0F4F80246494B17
:104CF0001B681946104601F039F80346184601F0C2
:104D000003FB0246464B1A60424B1B6819464FF0A4
:104D1000000001F029F803461C46424B1B68184668
:104D200001F0D8F803461946204601F01FF8034663
:104D3000184601F0E9FA02463B4B1A603B4B1B68F0
:104D4000184601F0C7F80246334B1B681946104657
:104D500001F00CF80346184601F0D6FA0246344B2F
:104D60001A602D4B1B6819464FF0000000F0FCFF45
:104D700003461C462F4B1B68184601F0ABF8034650
:104D80001946204600F0F2FF0346184601F0BCFA2F
:104D90000246294B1A60294B1B78012B02D1FFF7E1
:104DA000FFFA05E0254B1B78002B01D1FFF76AFBCA
:104DB000234B19681E4B1B681A460220FFF74CFD57
:104DC0001F4B1968164B1B681A460120FFF744FD5C
:104DD0001B4B1968184B1B681A460420FFF73CFD53
:104DE000174B1968104B1B681A460320FFF734FD58
:104DF00000BF1037BD46B0BD9A9999999999C93F9E
:104E0000FC01002000020020040200200000E03F1E
:104E1000F8010020080200200C02002010010020F0
:104E2000080400200801002058040020140100207C
:104E3000280400200C0100204C0400200401002064
:104E40002C04002080B588B000AF03460A46FB71F1
:104E50001346BB714FF4003301211846FBF744FCA5
:104E600001210120FBF75EFC00233B770023FB7749
:104E70000123BB61FB79184A52F8233007F118026D
:104E800011461846FCF71CFCBB79012B1FD10023EF
:104E9000002211461846FFF7DDF800233B6100238E
:104EA0003B7508237B750123BB7507F1100318467A
:104EB000FDF7B2FD06233B730F237B730F23BB73F8
:104EC0000123FB7307F10C031846FEF719F900BF25
:104ED0002037BD4680BD00BF5401002080B594B08E
:104EE00000AF786039600023FB640023BB640023BB
:104EF0007B647B681B6823F001027B681A607B6817
:104F00005B687B647B6C23F440537B643B689B68E9
:104F10007A6C13437B647B687A6C5A607B681B688D
:104F20007B647B6C23F4B05323F00C037B643B68FD
:104F30005A683B68DB681A433B681B6913437A6C09
:104F400013437B647B687A6C1A607B689B687B6424
:104F50007B6C23F440737B643B685B697A6C13431E
:104F60007B647B687A6C9A6007F108031846FBF74C
:104F7000A3F97B68334A934202D13B6BBB6416E0D2
:104F80007B68314A934202D17B6BBB640FE07B6844
:104F90002E4A934202D1BB6BBB6408E07B682C4A6B
:104FA000934202D1FB6BBB6401E03B6CBB647B684A
:104FB0001B6803F40043002B11D0BB6C5A003B6804
:104FC0001B68B2FBF3F3FB64BB6C5B003A681268CE
:104FD000B3FBF2F102FB01F29B1A7B640EE03B682B
:104FE0001B68BA6CB2FBF3F3FB643B681A68BB6CDA
:104FF000B3FBF2F102FB01F29B1A7B643B681B6876
:105000005A087B6C9A4202D8FB6C0133FB647B68C4
:105010001B6803F40043002B0BD0FB6C5B0803F010
:1050200007037B64FA6C4FF6F07313407A6C1343FA
:10503000FB64FB6C9AB27B689A8100BF5037BD4617
:1050400080BD00BF003801400044004000480040DF
:10505000004C004080B483B000AF78600B46FB701A
:10506000FB78002B06D07B681B6843F001027B684D
:105070001A6005E07B681B6823F001027B681A60F8
:1050800000BF0C37BD4680BC704700BF80B483B002
:1050900000AF78600B467B807B88C3F308039AB22D
:1050A0007B681A8500BF0C37BD4680BC704700BFC7
:1050B00080B483B000AF78607B689B8C9BB2C3F3F5
:1050C00008039BB218460C37BD4680BC704700BF32
:1050D00080B489B000AFF860B9601346FB7100235B
:1050E000BB6100237B6100233B610023FB61FB6804
:1050F000FB61BB681B12DBB2BB61BB68DBB27B61CF
:1051000001227B6902FA03F33B61BB69022B03D1E5
:10511000FB690433FB6105E0BB69032B02D1FB692A
:105120000833FB61FB79002B06D0FB69FA69116833
:105130003A690A431A6006E0FB69FA6911683A693C
:10514000D2430A401A6000BF2437BD4680BC704776
:1051500080B485B000AF786039600023FB737B6852
:10516000DA693B681340002B02D00123FB7301E096
:105170000023FB73FB7B18461437BD4680BC704789
:1051800000F000B8F8B50C4621F00041B1F1FF4F36
:10519000034614DC20F00046B6F1FF4F07460EDC54
:1051A000B4F17E5F3DD0A51705F0020545EAD07544
:1051B00056B9022D31D0032D2CD13248F8BD1946F5
:1051C000204600F0D3FDF8BD01B3B1F1FF4F2CD064
:1051D000B6F1FF4F1AD0711AC9153C291BDC002CFF
:1051E00039DB2146184600F07DFF00F073F900F02E
:1051F0005BF8012D2CD0022D22D0002D2FD022497A
:1052000000F0B4FD214900F0AFFDF8BD002F06DB32
:105210001F48F8BDF8BD1E48EBE71C48F8BD1D4807
:10522000F8BDBDE8F84000F03FB8B6F1FF4F17D029
:10523000022DF2D0032DC0D0012D19D00020F8BDD1
:10524000114900F093FD0146104800F08DFDF8BDB6
:1052500000F10040F8BD3C31C3DA0020C9E7F8BDD9
:10526000022D0CD0032D08D0012D04D00A48F8BD22
:105270004FF00040F8BD0948F8BD0948F8BD09489D
:10528000F8BD00BFDB0F49C02EBDBB33DB0F49406B
:10529000DB0FC93FDB0FC9BFDB0F493FDB0F49BF46
:1052A000E4CB16C0E4CB16402DE9F04120F00045D8
:1052B000B5F1A14F0446064608DBB5F1FF4F6FDCA0
:1052C000002840F3A0806F48BDE8F0816E4B9D42FE
:1052D00077DCB5F1445F68DB4FF0FF3721462046AD
:1052E00000F04CFE0146804600F048FE6749054646
:1052F00000F044FE664900F039FD294600F03EFE0C
:10530000644900F033FD294600F038FE624900F0A0
:105310002DFD294600F032FE604900F027FD2946A8
:1053200000F02CFE5E4900F021FD414600F026FE13
:105330005C498046284600F021FE5B4900F014FDE0
:10534000294600F01BFE594900F00EFD294600F0E9
:1053500015FE574900F008FD294600F00FFE55499B
:1053600000F002FD294600F009FE7B1C0146404684
:105370004CD000F0FBFC214600F000FE4E4B4F4DA0
:1053800053F8271000F0F0FC214600F0EDFC014638
:1053900055F8270000F0E8FC002E30DBBDE8F08176
:1053A000014600F0E3FCBDE8F081454900F0DEFC79
:1053B0004FF07E5100F09EFF00288DD02046BDE8C2
:1053C000F08100F087F83F4B9D42044629DCA3F5AD
:1053D000D0039D4244DC014600F0C8FC4FF07E51F2
:1053E00000F0C2FC4FF080410546204600F0BEFCB4
:1053F0000146284600F076FE002704466EE700F1DD
:105400000040BDE8F0813048BDE8F08100F0AEFC1E
:10541000214600F0B3FD0146204600F0A5FCBDE8A2
:10542000F0812A4B9D4214DC4FF07F5100F09CFC30
:105430004FF07F510546204600F0A0FD4FF07E5111
:1054400000F094FC0146284600F04CFE022704467A
:1054500044E701461E4800F045FE032704463DE7A9
:105460004FF07E5100F080FC4FF07E510546204603
:1054700000F07CFC0146284600F034FE012704467B
:105480002CE700BFDB0FC93FFFFFDF3ED769853C3C
:1054900059DA4B3D356B883D6E2EBA3D2549123E9B
:1054A000ABAAAA3E21A215BD6BF16E3D95879D3D2D
:1054B000388EE33DCDCC4C3E2464000834640008B3
:1054C000CAF24971FFFF973FDB0FC9BFFFFF1B40C7
:1054D000000080BF20F00040704700BF81F0004115
:1054E00002E000BF83F0004330B54FEA41044FEAC9
:1054F000430594EA050F08BF90EA020F1FBF54EA64
:10550000000C55EA020C7FEA645C7FEA655C00F0FF
:10551000E2804FEA5454D4EB5555B8BF6D420CDDD0
:105520002C4480EA020281EA030382EA000083EA53
:10553000010180EA020281EA0303362D88BF30BDF3
:1055400011F0004F4FEA01314FF4801C4CEA113149
:1055500002D0404261EB410113F0004F4FEA0333A8
:105560004CEA133302D0524263EB430394EA050F33
:1055700000F0A780A4F10104D5F1200E0DDB02FAA2
:105580000EFC22FA05F2801841F1000103FA0EF236
:10559000801843FA05F359410EE0A5F120050EF1FC
:1055A000200E012A03FA0EFC28BF4CF0020C43FA2D
:1055B00005F3C01851EBE37101F0004507D54FF03A
:1055C000000EDCF1000C7EEB00006EEB0101B1F58A
:1055D000801F1BD3B1F5001F0CD349085FEA3000D0
:1055E0004FEA3C0C04F101044FEA445212F5800FDB
:1055F00080F09A80BCF1004F08BF5FEA500C50F178
:10560000000041EB045141EA050130BD5FEA4C0C5A
:10561000404141EB010111F4801FA4F10104E9D1E3
:1056200091F0000F04BF01460020B1FA81F308BFDA
:105630002033A3F10B03B3F120020CDA0C3208DDA6
:1056400002F1140CC2F10C0201FA0CF021FA02F181
:105650000CE002F11402D8BFC2F1200C01FA02F1F1
:1056600020FA0CFCDCBF41EA0C019040E41AA2BF16
:1056700001EB0451294330BD6FEA04041F3C1CDADE
:105680000C340EDC04F11404C4F1200220FA04F0FE
:1056900001FA02F340EA030021FA04F345EA0301A8
:1056A00030BDC4F10C04C4F1200220FA02F001FA6A
:1056B00004F340EA0300294630BD21FA04F02946EC
:1056C00030BD94F0000F83F4801306BF81F4801185
:1056D0000134013D4EE77FEA645C18BF7FEA655CF8
:1056E00029D094EA050F08BF90EA020F05D054EACA
:1056F000000C04BF1946104630BD91EA030F1EBFCF
:105700000021002030BD5FEA545C05D140004941D2
:1057100028BF41F0004130BD14F580043CBF01F5C5
:10572000801130BD01F0004545F0FE4141F47001AB
:105730004FF0000030BD7FEA645C1ABF1946104686
:105740007FEA655C1CBF0B46024650EA013406BF87
:1057500052EA033591EA030F41F4002130BD00BF46
:1057600090F0000F04BF0021704730B54FF4806403
:1057700004F132044FF000054FF0000150E700BF84
:1057800090F0000F04BF0021704730B54FF48064E3
:1057900004F1320410F0004548BF40424FF00001D0
:1057A0003EE700BF42004FEAE2014FEA31014FEA13
:1057B00002701FBF12F07F4393F07F4F81F0605162
:1057C000704792F0000F14BF93F07F4F704730B5D1
:1057D0004FF4607401F0004521F0004120E700BF64
:1057E00050EA010208BF704730B54FF000050AE0EB
:1057F00050EA010208BF704730B511F0004502D5EC
:10580000404261EB41014FF4806404F132045FEAED
:10581000915C3FF4DCAE4FF003025FEADC0C18BF92
:1058200003325FEADC0C18BF033202EBDC02C2F188
:10583000200300FA03FC20FA02F001FA03FE40EA1A
:105840000E0021FA02F11444C1E600BF70B54FF01A
:10585000FF0C4CF4E06C1CEA11541DBF1CEA1355FC
:1058600094EA0C0F95EA0C0F00F0DEF82C4481EA64
:10587000030621EA4C5123EA4C5350EA013518BF84
:1058800052EA033541F4801143F4801338D0A0FB71
:1058900002CE4FF00005E1FB02E506F00042E0FB1E
:1058A00003E54FF00006E1FB03569CF0000F18BF24
:1058B0004EF0010EA4F1FF04B6F5007F64F54074CC
:1058C00004D25FEA4E0E6D4146EB060642EAC6215F
:1058D00041EA55514FEAC52040EA5E504FEACE2ECC
:1058E000B4F1FD0C88BFBCF5E06F1ED8BEF1004FCF
:1058F00008BF5FEA500E50F1000041EB045170BD4B
:1059000006F0004646EA010140EA020081EA03018E
:10591000B4EB5C04C2BFD4EB0C0541EA045170BD8A
:1059200041F480114FF0000E013C00F3AB8014F104
:10593000360FDEBF002001F0004170BDC4F100044D
:10594000203C35DA0C341BDC04F11404C4F12005CE
:1059500000FA05F320FA04F001FA05F240EA020029
:1059600001F0004221F0004110EBD37021FA04F65F
:1059700042EB06015EEA430E08BF20EAD37070BD19
:10598000C4F10C04C4F1200500FA04F320FA05F078
:1059900001FA04F240EA020001F0004110EBD3707A
:1059A00041F100015EEA430E08BF20EAD37070BDEA
:1059B000C4F1200500FA05F24EEA020E20FA04F3C3
:1059C00001FA05F243EA020321FA04F001F0004172
:1059D00021FA04F220EA020000EBD3705EEA430EE3
:1059E00008BF20EAD37070BD94F0000F0FD101F012
:1059F0000046400041EB010111F4801F08BF013C4B
:105A0000F7D041EA060195F0000F18BF704703F088
:105A10000046520043EB030313F4801F08BF013D0F
:105A2000F7D043EA0603704794EA0C0F0CEA1355CB
:105A300018BF95EA0C0F0CD050EA410618BF52EA85
:105A40004306D1D181EA030101F000414FF000008B
:105A500070BD50EA410606BF1046194652EA430699
:105A600019D094EA0C0F02D150EA013613D195EA0D
:105A70000C0F05D152EA03361CBF104619460AD155
:105A800081EA030101F0004141F0FE4141F470015F
:105A90004FF0000070BD41F0FE4141F4780170BD4F
:105AA00070B54FF0FF0C4CF4E06C1CEA11541DBFB4
:105AB0001CEA135594EA0C0F95EA0C0F00F0A7F8B6
:105AC000A4EB050481EA030E52EA03354FEA0131E3
:105AD00000F088804FEA03334FF0805545EA1313F6
